:020000040800F2
:10000000381A00203901000875080008190700088F
:1000100000000000000000000000000000000000E0
:10002000000000000000000000000000150B0008A8
:100030000000000000000000F7000008610C00084C
:10004000690100080000000069010008690100085A
:1000500069010008690100086901000869010008D8
:1000600000000000FD0400086901000869010008A3
:10007000690100086901000869010008000000002A
:10008000690100080000000000000000690100088C
:100090006901000869010008690100086901000898
:1000A0006901000869010008690100086901000888
:1000B000690100080348854600F0D4F8004800476D
:1000C000E5130008381A0020064B1968086820302C
:1000D00080F30988022080F314883FBCAE4662B6E4
:1000E00000BD000034000020EFF3108072B67047AE
:1000F00080F310887047EFF309800E4B1A682038A0
:100100001060F0C044464D4656465F46F0C008B504
:1001100072B601F017FF62B60CBC116808681030A7
:10012000F0C8A046A946B246BB4680F309882038ED
:10013000F0C81847340000200C4880F308880C48A9
:100140000168090E0B4A914205D10B480B49016029
:100150000B480C4901600C4880470C480047FEE7FB
:10016000FEE7FEE7FEE7FEE7FEE70000381A0020A4
:10017000040000001F0000001810024001000000F1
:100180000000014000000000850C0008B5000008D8
:1001900030B50B46014600202022012409E00D461F
:1001A000D5409D4205D31D469540491B25469540A7
:1001B00040191546521E002DF1DC30BD03460B439D
:1001C0009B0703D009E008C9121F08C0042AFAD20D
:1001D00003E00B780370401C491C521EF9D2704793
:1001E000F0B51FB40646002082B0054640240191B8
:1001F00000901BE0019922460F46304600F020F89F
:10020000049A059B801A994110D31046194622463C
:1002100000F03AF8361A8F4101972246012000215A
:10022000009F00F031F838184D4100902046641EC0
:100230000028DFDC019B00982946324607B0F0BD5C
:1002400010B5202A04DB0846203AD040002110BD1A
:100250000B46D340D0402024A21A914008431946AF
:1002600010BD0000064C0125064E05E0E36807CCF2
:100270002B430C3C98471034B442F7D3FFF71EFFD2
:10028000102800083028000810B5202A04DB014699
:10029000203A9140002010BD914020239C1A034633
:1002A000E3401943904010BD836A0B43836242616F
:1002B00070470029816801D0012200E00222114329
:1002C000816070470029C16802D00122114301E01A
:1002D00049084900C1607047C26802239A43C2605E
:1002E000C2680A43C2607047064910B5884208D107
:1002F00044150121204600F039FB0021204600F082
:1003000035FB10BD00240140826800210123DB077A
:100310001A4382600F231B038268491CD20FD20745
:10032000994201D0002AF7D18168002901DB006CD5
:1003300070470020704702460020CB0104D5926828
:1003400001231B069A4300E012680A4200D00120F4
:100350007047000030B5C368084A8C6813400A68CB
:100360000D792243CC686D032C4322430C69496903
:1003700022430A431A43C26030BD000003D2FFFF8C
:10038000816804221143816070470021016001717E
:100390008160C1600161416170470000F0B53E4D70
:1003A00095B02846FFF7A0FF0121480400F0AEFAFF
:1003B0000121480200F0CEFA0121084600F0A6FA19
:1003C000062006900321684601770221C17706A91D
:1003D000680400F04DF9314F384600F0B3F82E486C
:1003E0008021403009902E480A9020200E91002450
:1003F000C1000F9141010C9011900B940D940002DB
:100400001091129009A91394384600F013F90122B3
:100410000221384600F006F9092108A8017044704D
:100420000126867000F028FA0121384600F07EF897
:100430006846FFF7AAFF6846009406710294049488
:10044000694628460594FFF785FF052202212846C4
:10045000FFF72AFF052204212846FFF725FF28463B
:10046000FFF752FF02212846FFF736FF2846FFF725
:100470004BFF01212846FFF725FF01212846FFF702
:1004800018FF01212846FFF756FF0028F9D028461B
:10049000FFF776FF15B0F0BD0024014008000240D0
:1004A000C4000020F0B500220C4C01250C4F114671
:1004B000ED0300204B0086003619F65A401CB21896
:1004C000C0B21028F7D310034019000CF852491C91
:1004D0000022C9B20229ECD3F0BD0000C400002004
:1004E000300000200449002042008A5A401C80B29B
:1004F0000228F9D3704700003000002010B5022018
:1005000000F080F8002804D0FFF7CCFF022000F0B4
:1005100001F810BDC10001D5024900E00249486060
:1005200070470000000402400000024000290168FA
:1005300002D00122114301E0014A114001607047DD
:10054000FEFF0000F0B501682B4A11400160002158
:10055000016041608160C1602849284B08390F2241
:10056000984201D1486823E0244CF0231434A0427F
:1005700029D0224D1C012835A8422BD01F4E1D0228
:100580003C36B0422DD01D4F1E035037B8422FD0FD
:100590001A4F6437B84204D148681A0408E048602A
:1005A000F0BD164F7837B84204D148680F221206C2
:1005B0001043F4E71249124F0839B842D2D0104A1A
:1005C0001432904202D148681843E8E70C4A2832B6
:1005D000904202D148682043E1E7094A3C32904208
:1005E00002D148682843DAE7054A50329042D7D111
:1005F00048683043D3E70000FEFF000008000240D7
:100600000804024001460020CA0001D5034A00E068
:10061000034A12680A4200D00120704700040240D9
:1006200000000240002A026801D00A4300E08A4329
:100630000260704730B503680C4A0C6A13408A6840
:100640004D6922430C692C4322438C692243CC69B7
:1006500022434C6A22438C6A22431A430260CA68CE
:1006600042600A6882604968C16030BD0F80FFFF48
:10067000F0B50022012423460D6893401D409D42A1
:100680002AD10D79012D01D0022D12D18768550094
:100690000326AE40B74387604E79AE4085682E434F
:1006A000866085889D43858085888B7993401D432E
:1006B0008580066855000323AB409E4306600E7993
:1006C0000768AE403E430660C6689E43C660CB796D
:1006D000AB40C5682B43C360521C102ACBD3F0BD7E
:1006E0004B07DB0E9A40C90810B589000818016A4B
:1006F0000F249C40A1430162016A1143016210BDB5
:100700000449016000210171012242718171C171AE
:1007100070470000FFFF0000FEE70029016802D0DB
:100720000122114301E049084900016070470000BF
:1007300010B588B000F018F80020019003900290E6
:100740000490059006900648064C009069462046A5
:1007500000F048F801212046FFF7DFFF08B010BD88
:10076000A0860100005400401CB501214C05204624
:1007700000F0D8F8002000F0C1F90121084600F08F
:10078000E9F80121204600F0D9F80021204600F0C8
:10079000D5F80121880400F0B9F8104C0122062197
:1007A0002046FFF79DFF012207212046FFF798FF13
:1007B0004020009002206A461071002050710121F3
:1007C0009171D17169462046FFF752FF8020009059
:1007D00069462046FFF74CFF1CBD0000000400489E
:1007E0007047000010B502685208520002600268AB
:1007F000134B8C681A4024024B6814432343036054
:100800000F230A681B069A430261026801231A43F8
:10081000026000228260C2600B698A691A438260AA
:1008200082680123DB031A438260CA6803681343AA
:1008300003604268034B49691A401143416010BD8F
:10084000FFE0CF00FF7FFF071CB50121C80400F0C7
:100850005DF8032000020090012069460871002223
:100860008A71C871032048710148FFF701FF1CBD60
:10087000000800487047000030B5837801210278F5
:10088000002B15D094080E4BA400E418236892079F
:10089000D50EFF22AA40934342789207120EAA4037
:1008A0001A4322600078C006C00E8140054804E06B
:1008B000D006C00E814003488030016030BD00008A
:1008C00000E400E000E100E08307FF22DB0E9A4035
:1008D0008907090E994000280BDA0007000F083835
:1008E000830808489B001818C36993430B43C361EE
:1008F0007047830804489B001B18186890430843FE
:100900001860704700ED00E000E400E0044A0029B0
:10091000516901D0014300E08143516170470000FB
:1009200000100240044A0029D16901D0014300E0CF
:100930008143D1617047000000100240044A002941
:10094000116901D0014300E081431161704700004B
:1009500000100240044A0029916901D0014300E0DF
:10096000814391617047000000100240044A002951
:10097000D16801D0014300E08143D160704700009D
:1009800000100240F8B5564D0446686800210C225C
:10099000544E104005D0042803D0082803D00C285A
:1009A0001AD026601AE06968686803228902D203B7
:1009B0000F0F1040BF1C00280AD0E86A0107090F7A
:1009C0003046491CFFF7E4FB78430146216005E00F
:1009D000454839464143F9E7444820606868444F38
:1009E0000006000F3B5C20680246DA4062606B68DC
:1009F0005B055B0FFB5CDA40A2602B6BDB0501D46F
:100A00003C4B05E06B685B0401D4530800E093089D
:100A1000E3602B6B5F06384B03D4374F12372761E7
:100A200000E023612F6BFF0601D4666100E0606186
:100A30002F6BBF070ED02F6BBF07BF0F012F0BD03F
:100A40002F6BBF07BF0F022F08D02F6BFF43BF07CD
:100A500006D006E0A26104E0A06102E0A36100E02C
:100A6000A6612F6BBF03BF0F0FD02F6BBF03BF0F4C
:100A7000012F0CD02F6BBF03BF0F022F09D02F6B9C
:100A8000BF03BF0F032F06D006E0E26104E0E06180
:100A900002E0E36100E0E6612F6B3F03BF0F0FD080
:100AA0002A6B1203920F012A0CD0286B0003800FCF
:100AB000022809D0286B0003800F032806D006E027
:100AC000226204E0206202E0236200E02662286BDA
:100AD000000602D405486062F8BD6162F8BD0000FE
:100AE0000010024000127A0000093D00006CDC0298
:100AF00014000020809FD5000080000004490A6B8C
:100B000010239A430A630A6B02430A63704700008A
:100B1000001002407047000008B500200090144902
:100B20001120086013484168416041684160416894
:100B30007F22D2039143416041680522D2041143D0
:100B400041600168012212061143016001688901B8
:100B5000FCD541688908890041604168022211433F
:100B6000416041680907890F0229FAD108BD0000D8
:100B7000002002400010024070B51948FFF702FF44
:100B800018A000F083FA164C1EA0216800F07EFA2F
:100B900023A0616800F07AFA25A0A16800F076FA37
:100BA00027A0616900F072FA2A487D21C900006817
:100BB000FFF7EEFA2849401E88420FD8274C6061A3
:100BC00003210D1F2846FFF77FFE0020A0610720AC
:100BD000206101212846FFF777FE70BDFEE7000087
:100BE0009C0000203D3D3D3D3D3D3D3D3D3D3D3D6D
:100BF0003D3D3D3D3D3D3D3D3D3D3D3D3D3D3D0D55
:100C00000A000000535953434C4B5F46726571759F
:100C1000656E6379203D20256420487A0A0D000026
:100C200048434C4B203D20256420487A0A0D0000A3
:100C300050434C4B203D20256420487A0A0D00008B
:100C400049324331434C4B203D20256420487A0AE9
:100C50000D00000000000020FFFFFF0000E000E0AA
:100C600010B5FFF741FA044601F074FC002803D0E8
:100C700001200349000748602046FFF739FA10BDFC
:100C800000ED00E010B51448016801221143016035
:100C90004168124A114041600168114A11400160E7
:100CA0000168012292049143016041683F221204CD
:100CB00091434160C16A09090901C162016BFF22C8
:100CC000543291430163416B49084900416300215B
:100CD0008160FFF721FF10BD001002400CB8FFF843
:100CE000FFFFF6FEF0B501218BB04804FFF70EFEC2
:100CF0006846FFF705FD012040020090022168468A
:100D00000171032141710024847101260925C671F6
:100D1000ED0669462846FFF7ABFC0222092128466A
:100D2000FFF7DEFC0121C802FFF714FEFF27E037C2
:100D3000EF2507A800F0C8F8104968468183089796
:100D40000F4F848407A9384600F084F802A800F009
:100D500077F87021684601814681848202A938466D
:100D6000049500F025F80121384600F00BF8012128
:100D7000384600F011F80BB0F0BD0000E7030000AA
:100D8000002C01400029018802D00122114301E01A
:100D9000490849000180704740300029818803D00C
:100DA0000122D203114301E04904490C81807047BC
:100DB00070B5028C10239A430284048C8288038BC2
:100DC0001A4D2B400D782D062D0C1D4320239C43DE
:100DD0008B891B051E0C4B8826431B051B0C144CD2
:100DE0003343A04202D0134EB04219D1124E3240CA
:100DF0000E8AB604360C3243A04211D18024A3439C
:100E0000CC892405240C1C4340239C438B881B0560
:100E10001B0C2343094C22404C8AA404240C22437B
:100E20008280058389688163038470BDFF8C000024
:100E3000002C014000400140FFFB0000FFF70000D4
:100E4000002101804180818081608181C181018296
:100E50004182704710B50288144B984206D0012495
:100E6000A407A04202D0124CA04203D17024A24396
:100E70004C8822430F4CA04203D00F4C22400C89D7
:100E8000224302804A68C2620A880285984208D0DA
:100E90000A4A904205D00A4A904202D0094A90423A
:100EA00001D1897A01860121818210BD002C014087
:100EB0000004004000100040FFFC00000040014022
:100EC00000440140004801400021C9434160002125
:100ED000018001814180817270470029016802D040
:100EE0000122114301E049084900016070470000F8
:100EF000F0B5012189B04804FFF708FD01218803FE
:100F0000FFF728FD09210122C806FFF7E9FB0920A8
:100F100001220A21C006FFF7E3FB00246846847122
:100F20000125C571022606716802009003276846F4
:100F3000477109206946C006FFF79AFB68460671AB
:100F4000A802009009206946C006FFF791FBE12046
:100F50000894400204940594069403900C200F4CCE
:100F6000079003A9204600F039F801220C492046D9
:100F700000F01FF84021204600F014F80028F9D0B6
:100F80001B21684601724772857202A8FFF774FC44
:100F900001212046FFF7A1FF09B0F0BD0038014054
:100FA000050105000246D26900200A4200D0012056
:100FB000704710B50B041C0E01238B40022C02D08D
:100FC000032C02D002E0001D00E008300168002A76
:100FD00001D0194300E09943016010BD30B50446CB
:100FE00000688BB00D464008400020606068032117
:100FF00009038843A9680143616020681C49EA68C5
:101000000840696811432A69024311432160A068BE
:1010100003210902884369690143A1606846FFF71B
:10102000B1FC1448844201D106980AE01248844277
:1010300001D1079805E01148844201D1089800E0E9
:10104000029821680904296800D54000FFF7A0F83C
:101050002A6852088A4200D8401C2168090404D535
:101060000107074A490F10400843A0810BB030BD6B
:10107000F3E9FFFF00380140004400400048004011
:10108000F0FF0000C905C90D018570470FB410B508
:1010900003A9044B044A029800F024F810BC08BCD1
:1010A00004B01847C11300089800002030B47446FB
:1010B000641E2578641CAB4200D21D46635D5B0054
:1010C000E31830BC184702E008C8121F08C1002A04
:1010D000FAD170477047002001E001C1121F002AB9
:1010E000FBD17047FFB58FB00F460446002606E0DF
:1010F00025280AD0129A11999047641C761C2078F2
:101100000028F5D1304613B0F0BD00250121A14AD9
:10111000009500E00543641C23780846203B984076
:101120001042F7D120782E2815D10420054360788D
:10113000641C2A280AD101CF641C00900BE000999E
:101140000A22514330394018641C0090207801462F
:1011500030390929F3D920786C280ED004DC4C28CA
:1011600013D06A2812D104E074280ED07A280DD149
:101170000BE001204005054307E0012109056278E5
:101180000D43824201D16D18641C641C2078864690
:1011900069284AD008DC0028B4D058286DD06328CC
:1011A00010D0642808D140E070286BD0732812D08A
:1011B000752860D0782860D0129A704611999047AF
:1011C000761CE5E03878694608720020487202A86B
:1011D0000190012003E0386801900020C0433F1DCA
:1011E00069070CD5002500E06D1C00998D420FDACF
:1011F0008542F9DB0199495D0029F5D108E0002518
:1012000000E06D1C8542FCDB0199495D0029F8D1A5
:10121000761907E0019801990078491C0191129A0A
:10122000119990476D1EF5D2B2E00A20029000217C
:101230006802400F039102280CD001CFC1178446E9
:1012400000290DDA62460846524200218141944647
:101250002D2008E0FF1DFF08FF0003CF8446EFE7C5
:10126000280504D52B206A46107401203CE0E807CD
:101270003AD02020F7E70A2000E010200021039157
:10128000029007E01020029000210420054308206E
:10129000039100906802400F022810D001CF002176
:1012A000844600200D9028071FD5704670280CD06A
:1012B000029A1020039B42401A430CD015E0FF1DF8
:1012C000FF08FF0003CF8446EBE740206A46107416
:1012D00001200D900CE06046084306D030206A469D
:1012E00010747046507402200D907046582804D037
:1012F00029A001900DA80E900DE02CA0F9E7604602
:10130000039B029AFEF76CFF019B84469B5C0E9A3E
:10131000521E0E92137060460843F0D10E9805A934
:10132000081A20300190680701D5009801E00120DB
:1013300000900199884203DD01460198081A00E0F7
:1013400000200025009006E004A8129A405D119943
:1013500090476D1C761C0D988542F5DB04E0129ACF
:10136000302011999047761C0099481E0090002962
:10137000F5DC08E00E980E990078491C0E91129A3F
:1013800011999047761C0199481E01900029F1DCC3
:10139000641CB4E609280100303132333435363765
:1013A00038396162636465660000000030313233B1
:1013B0003435363738394142434445460000000051
:1013C00070B5074D0446C1B22846FFF75BFE4021C9
:1013D0002846FFF7E7FD0028F9D0204670BD000041
:1013E000003801401FB500241248032100910190EC
:1013F00002942346802203940FA1144800F0DAFFE0
:10140000134802210091019002940023802203944A
:1014100010A1164800F0CEFF012000900194029424
:101420000023802212A10394164800F0C3FF00F0AD
:101430005BFDFEE724000020765461736B496E6902
:101440007448617264776172650000003D1D000898
:1014500028000020765461736B496E697441707086
:101460006C69636174696F6E00000000091D0008FB
:10147000765461736B4170704265686176696F7212
:1014800000000000051C000870B50B4C05462068E4
:101490004560E0682168854204D2606B091D00F058
:1014A00005FB70BD206B091D00F000FBA06A8542A2
:1014B000F7D2A56270BD00003400002010B500F026
:1014C00019FB0F4C2068002815D10E4800F0E0FAF7
:1014D0000C48143000F0DCFA0A48A0601430E060D8
:1014E00000220C210A2000F079FD2060002805D0A0
:1014F00005A100F059FB00F009FB10BD72B6FEE734
:101500006C0000200C020020546D7251000000009D
:1015100070B5134E134C1BE000F00CFD3068002832
:101520001AD001F0D9F800F0E5FAF068C568281D76
:1015300000F08CFAA068401EA0606068401E6060E9
:1015400000F0E4FA286B00F0EFFA284600F0ECFA1D
:1015500060680028E0D170BD01F0BEF8F8E7000037
:10156000E40100203400002010B5026C0C46002A73
:101570000CD0C1688B18C36041688B4201D21946F8
:1015800001E00168C1602046FEF718FE10BD70B58D
:101590001646026C00250446002A11D0002E19D0F0
:1015A000E068FEF70BFEE168206C091AE160226832
:1015B000914202D26168081AE060022E17D01CE046
:1015C0002068002819D1606801F024F80546002041
:1015D000606012E0A068FEF7F1FD216CA068401881
:1015E000A0606168884208D32068A06005E0A06B15
:1015F000002802D0A06B401EA063A06B401CA0631B
:10160000284670BD05210E488902420705D0C01D3D
:10161000C0080B4AC000821A891A0A4A00234118DE
:1016200009C20839C908C900183A11604B600B603B
:101630000B1A0AC093600120C0075360D060704746
:101640003402002090000020044CFFF761FF206866
:101650000128FAD900F08AFAF7E7000044010020D7
:1016600030B5114900E011460A688242FBD34B684D
:101670005C18844203D140681818486008464368E3
:101680001C18944209D1084C103C2468A24209D08D
:1016900052689A1842600A6812680260814200D05B
:1016A000086030BD0460F9E79000002070B50024A8
:1016B00041600B4D0061914206D8D11A8269914276
:1016C00006D2011DE86807E09A4203D2994201D38D
:1016D000012403E0011DA86800F0E8F9204670BD70
:1016E0006C00002030B587B0274D43E004980028F7
:1016F00040DB069C6069002802D0201D00F0A6F99E
:1017000002A800F099F8024604980300FFF7CEFC07
:101710000A06060632232F06063223320598A169EF
:10172000034641182046FFF7C1FF012822D1616A14
:1017300020468847E06901281CD1002000900598C8
:10174000A169002342181946204601F03BF8002801
:1017500010D172B6FEE70598A061002805D0811867
:1017600013462046FFF7A2FF04E072B6FEE72046CC
:1017700000F0DAF900231A4604A9286800F051FCA9
:101780000028B3D107B030BD6C000020FEB50F4675
:10179000054600F0CFFB01A800F04EF80446019882
:1017A000002802D000F098FFFEBD1A4E002F26D16F
:1017B000A54224D800F090FFB0682746C068C468EE
:1017C000201D00F043F9E069012812D1A0692B46E1
:1017D00041193A462046FFF769FF012809D1002048
:1017E0000346014600902A46204600F0EBFF002801
:1017F00003D0616A20468847FEBD72B6FEE7291B0A
:10180000306800F0E3F900F067FF0028F4D100F041
:10181000ADF9FEBD6C0000200648016B0968002987
:1018200005D0016BC968C9684968816270470021A9
:10183000C943FAE73400002070B5054600F084FE85
:10184000064E04467068844203D200F009F8012075
:1018500000E0002028602046746070BD6C0000200D
:10186000F8B5164D20E0C068C4680668201D00F079
:10187000EDF8616A20468847E069012814D1A06923
:101880008019B04206D924616060211DA86800F06B
:101890000DF909E00020034601460090324620463B
:1018A00000F090FF002807D0A86801680029DAD16D
:1018B000E968A960E860F8BD72B6FEE76C00002038
:1018C00003480068401C72B600D0FEE7FEE7000047
:1018D0007C000020074CA0680168002907D0C06880
:1018E00000210068FFF752FFFFF7FCFEF3E701213C
:1018F0000020F7E76C00002070B5044600F0FAF80D
:10190000254624350CE0606A00280CD0284600F0FB
:10191000B1FE002801D000F023FAA06C401EA064A4
:10192000A06C0028EFDC0026F643A66400F0EEF879
:1019300000F0E0F8254610350CE0206900280CD0B6
:10194000284600F097FE002801D000F009FA606CEC
:10195000401E6064606C0028EFDC666400F0D6F81E
:1019600070BD0000F8B50546002700F0E3FA284EE8
:101970003068002801D1FFF745FEF06805423FD1ED
:10198000002D3DD00835680708D06807400F0821B2
:10199000081A4519680701D072B6FEE7002D2FD04E
:1019A000706885422CD81A48103001460C6801E056
:1019B00020460C466168A94202D221680029F7D16D
:1019C00031688C421CD00768216801606068083764
:1019D000411B102908D96019420701D072B6FEE7F1
:1019E00041606560FFF73CFE61687068401A706096
:1019F000B268904200D2B060F0680143002003C496
:101A000000F06AFE780701D072B6FEE73846F8BDEE
:101A10008000002004490868002803D00868826C10
:101A2000521C8264086870473400002010B50124FD
:101A3000031F24061C601B1F1960191F024B0B603B
:101A4000143940380A6010BDC11800084368826824
:101A500001699A60836842685A604A68824201D18B
:101A600082684A60002202610868401E0860704770
:101A700010B5044600F03EF8002C01D1034804687C
:101A8000E46A00F043F8204610BD00003400002056
:101A90000146083100224160D243C1608260016189
:101AA00000210160704700210161704730B50B686B
:101AB0005A1C02D00246083202E0026904E02246C3
:101AC000546825689D42FAD953684B6099608A60D2
:101AD000516008610168491C016030BD42684A607C
:101AE00093688B6093685960916008610168491C34
:101AF0000160704772B604480168491CBFF34F8FFC
:101B0000BFF36F8F016070477C00002005490868B3
:101B1000002804D0401E086000D162B6704772B63B
:101B2000FEE700007C00002070B500281AD00446B3
:101B30000D4D083C6068E968084201D172B6FEE7C5
:101B40002268002A01D072B6FEE78843606000F088
:101B5000F1F960686968401868602046FFF780FD09
:101B600000F0BAFD70BD0000800000200120044993
:101B700000074860BFF34F8FBFF36F8F70470000BF
:101B800000ED00E010B5044600F0D4F9214604A0B1
:101B9000FFF77CFA03480020C04600F09DFD10BD11
:101BA000257300009800002010B5074B0022D400D8
:101BB0001C59002C03D0521C082AF8D310BDD200A7
:101BC0009950D118486010BD0401002070B50D4631
:101BD0000446FFF78FFF616C0020491C00D1606450
:101BE000A16C491C00D1A064FFF790FFA06B0028F6
:101BF00004D120462946243000F0D8F82046FFF7CB
:101C00007BFE70BD08B5142500F09EFC00900020FE
:101C1000FFF72EFF0446064EFEF764FC611CB06819
:101C200000F00CF92946684600F004F8F4E70000DB
:101C30002400002070B50C46020007D0002C07D00D
:101C4000144BD86A002805D072B6FEE772B6FEE7DC
:101C500072B6FEE700F06EF9DD6810680419A8425C
:101C600004D9A0420DD9AC4202D80AE0A042FAD968
:101C700014601868001DFFF7E9FE2046FFF704FC1A
:101C800000E0146000F028FD002801D1FFF76EFF8E
:101C900070BD00003400002070B50446FFF72AFF35
:101CA000174D002C00D12C68201DFFF7CFFEA06A35
:101CB000002803D020461830FFF7C8FE211D114828
:101CC000FFF70CFF6868401C6860686A401C686227
:101CD000FFF71CFF6869002809D02868844207D1F3
:101CE000E86A002801D072B6FEE7FFF73FFF70BD3B
:101CF000FFF700FFFFF790FDFFF708FF70BD000042
:101D000034000020E401002005A0FFF73BFFFEF7B0
:101D10000FFDFEF765FD084C6068FFF7BDFFFBE7B0
:101D2000765461736B496E69744170706C6963615C
:101D300074696F6E0D0A000024000020FFF7D8F8C8
:101D4000FEF71AFFFEF780FDFEF7CCFFFEF726FB3D
:101D5000024C2068FFF7A0FFFBE7000024000020F2
:101D600001490120C86170473400002070B50C465D
:101D700000280FD00B4D29681831FFF797FE28680F
:101D8000001DFFF763FE601C06D0E8680019FFF72E
:101D90007BFB70BD72B6FEE729680348091DFFF79B
:101DA0009DFE70BD34000020F801002070B50D4686
:101DB00000280DD0074C21681831FFF78FFE2068EE
:101DC000001DFFF743FEE0684019FFF75DFB70BDA3
:101DD00072B6FEE73400002070B5040025D0154D22
:101DE000E06A2968C96A88421FD2A069002804DB1A
:101DF00028680521C06A081AA061E06A14220E4E04
:101E0000504361698019814210D1201DFFF71EFEE9
:101E10002868C06AE0622969884200D928611421D3
:101E200048438019211DFFF759FE70BD2868C06A1C
:101E3000E06270BD3400002044010020F8B50027A6
:101E40000D460446052901D372B6FEE7FFF752FEA0
:101E50001D4E002C00D13468616CA94230D030682E
:101E60008D4206D9844207D03068C06AA84202D9A0
:101E700002E0844200D10127E06A814200D1E5629C
:101E80006564A169002902DB0521491BA1611422B7
:101E90000E4D50436169401981420DD1201DFFF75D
:101EA000D5FDE06A3169884200D930611421484388
:101EB0004019211DFFF712FE002F01D0FFF756FE3B
:101EC000FFF724FEF8BD000034000020440100208C
:101ED000002805D003490A6A0260C968416070475A
:101EE00072B6FEE7340000201FB500240094019470
:101EF0000294234680220BA10C48039400F05AFA66
:101F0000012803D100F03CFC012803D0002808D1AF
:101F100072B6FEE772B6012105484161C46000F067
:101F20003DF81FBD49444C4500000000491600081B
:101F3000340000200248C16A491CC1627047000099
:101F4000340000201348C16A002902D00121C16178
:101F500070470021C161104904E0002A17D00269CE
:101F6000521E0261026914235A438A58002A0269E8
:101F7000F3D05A4351184A680B46526808334A60F6
:101F80009A4201D152684A60D1680160704772B6C6
:101F9000FEE70000340000204401002010B50B488B
:101FA000016AFF22120411430162016A1202114305
:101FB0000162084806494161072101610649002084
:101FC0000860FEF781F8002010BD000000ED00E081
:101FD0007FBB000000E000E07C00002070B50E46F2
:101FE000050016D0002E16D07043401C4C30FFF771
:101FF000B9FC002813D00446002E0ED020464C30E9
:102000002060266401212046E56300F0A7F8204601
:1020100070BD72B6FEE70020E8E72460F1E772B613
:10202000FEE7FFB5002583B00E46040002D0002E67
:1020300002D006E072B6FEE7206C002801D072B62E
:10204000FEE700F071FA0027002804D10598002867
:1020500001D072B6FEE7FFF74DFDA06B00282BD034
:1020600031462046E568FFF77FFA0698002810D031
:10207000E560606A002807D02046243000F0FAFAB4
:10208000002801D0FFF772FDFFF740FD012007B0E7
:10209000F0BDA06B401EA0632068002802D1FFF7AE
:1020A000B9FC606020690028EED02046103000F0B6
:1020B000E1FA0128E6D0E7E70598002802D0002DD4
:1020C00003D006E0FFF722FD1EE06846FFF700FFA1
:1020D0000125FFF71BFDFFF72DFFFFF70BFD606CE0
:1020E000401C00D16764A06C401C00D1A764FFF7BE
:1020F0000DFD05A9684600F033F9002806D02046FA
:10210000FFF7FAFB00F0E8FA0020C0E7FFF7F2FC67
:10211000A06B002807D0FFF7F9FC2046FFF7ECFB87
:1021200000F0DAFA97E7FFF7F1FC2068002806D103
:10213000FFF7E0FC6068FFF74FFEFFF7E7FC204683
:1021400024300599FFF712FE2046FFF7D5FB00F07B
:10215000C3FA0028E6D1FFF709FD7CE770B50D460C
:10216000040024D0FFF7C6FC216CE06B48432168D3
:10217000411861600021A1632168A160E06B216CBE
:10218000401E4843216841180020C043E16060645C
:10219000A06420461030002D0BD0FFF779FC2046BC
:1021A0002430FFF775FCFFF7B1FC012070BD72B65B
:1021B000FEE721690029F6D000F05CFA0128F2D18F
:1021C000FFF7D4FCEFE7FFB5002683B01D460400FF
:1021D00003D00498002802D006E072B6FEE7206C17
:1021E000002801D072B6FEE7022D04D1E06B012871
:1021F00001D072B6FEE700F097F90027002804D15D
:102200000598002801D072B6FEE7FFF773FCA06BBB
:10221000E16B884207D3022D05D0059800281AD01B
:10222000002E1BD01EE02A4620460499FFF7AFF986
:10223000616A002906D02046243000F01BFA0128EC
:1022400002D003E0002801D0FFF790FCFFF75EFC0E
:10225000012007B0F0BDFFF759FC1EE06846FFF70C
:1022600037FE0126FFF752FCFFF764FEFFF742FC42
:10227000606C401C00D16764A06C401C00D1A76456
:10228000FFF744FC05A9684600F06AF8002806D06C
:102290002046FFF731FB00F01FFA0020D9E7FFF7D7
:1022A00029FCA06BE16B884210D1FFF72FFC204680
:1022B00010300599FFF75AFD2046FFF71DFB00F08F
:1022C0000BFA0028A1D1FFF751FC9EE7FFF71EFC97
:1022D0002046FFF711FB00F0FFF996E7F8B51D4621
:1022E00016460F46040002D0002F02D006E072B658
:1022F000FEE7206C002801D072B6FEE7022D04D163
:10230000E06B012801D072B6FEE7FDF7EDFE00900C
:10231000A06BE16B884207D3022D05D00024009802
:10232000FDF7E6FE2046F8BD2A4639462046FFF76F
:102330002EF9A06C401C04D0A06C401CA0640124A9
:10234000EDE7606A0028FAD02046243000F092F9C8
:102350000028F4D0002EF2D001203060EFE700001A
:1023600070B50D4604001AD0002D1AD0FFF7C2FB3D
:102370000F4AD1682868431C0FD02368126A934221
:1023800002D062688A420ED96268891A81420AD2F2
:10239000401A28602046FFF79BFD002404E072B637
:1023A000FEE772B6FEE70124FFF7B0FB204670BDE2
:1023B00034000020FFB583B003980C9E0E9C0F469E
:1023C000002803D0052E03D372B6FEE772B6FEE7EF
:1023D0009500002C03D12846FFF7C4FA0446002CD0
:1023E00013D05420FFF7BEFA00280BD02146046317
:1023F00004462D1F4819C008C0000090400707D0B0
:1024000072B6FEE72046FFF78FFB0024E44384E02A
:102410003546002021183A5C20310A75395C0029C4
:1024200002D0401C1028F5D32046403000270190F0
:10243000C770052D00D30425E562A764201D6564DF
:10244000FFF731FB20461830FFF72DFB24610520F4
:10245000411B6462A161E76401980774069A0399BD
:102460000098FFF7E3FA20600D98002800D0046080
:10247000FFF740FB2A4DA868401CA8602868002888
:1024800003D06869002828D02CE02C60A8680128B7
:1024900028D100271420234978434018FFF7F8FA81
:1024A0007F1C052FF6D31F486430FFF7F1FA1D4853
:1024B0007830FFF7EDFA1B488C30FFF7E9FA19483E
:1024C000A030FFF7E5FA1748B430FFF7E1FA1548F6
:1024D000643028631430686304E02868C06AB0423E
:1024E00000D82C60686A401C6862E06A29698842EA
:1024F00000D92861142148430A494018211DFFF7DB
:10250000EDFA0124FFF702FB6869002805D028686E
:10251000C06AB04201D2FFF729FB204607B0F0BDE8
:10252000340000204401002006484169002904D0FD
:10253000C06A002803D000207047012070470220A5
:1025400070470000340000200148C0687047000058
:1025500034000020F8B52D4C0026E06A002808D091
:10256000A069401CA061E069002800D00126304627
:10257000F8BDE068401CE060E768002F0ED1206BDA
:102580000068002801D072B6FEE7206B616B216302
:102590006063206A401C2062FFF73EF9A06A874210
:1025A0000AD3206B0068002810D0206BC068C56873
:1025B000686887420DD2A06220681421C06A48432F
:1025C000134908580128CED90126CCE70020C04382
:1025D000F1E7281DFFF73AFAA86A002803D0284639
:1025E0001830FFF733FAE86A2169884200D9206180
:1025F0001421484306494018291DFFF76FFAE86A7D
:102600002168C96A8842CCD30126CAE73400002079
:102610004401002010B500210446002823D0A06CFE
:10262000002808D0401EA064636CE26A9A421AD067
:10263000002802D017E072B6FEE7201DFFF706FA69
:10264000606C0521E062081AA0610849E06A0A6925
:10265000904200D908611421484305494018211DC2
:10266000FFF73CFA0121084610BD000034000020AD
:102670004401002070B5C068C468002C0BD020460F
:1026800018300646FFF7E2F9114DE86A002804D039
:10269000314610480FE072B6FEE7201DFFF7D6F96D
:1026A000E06A2969884200D9286114214843094910
:1026B0008C394018211DFFF711FAE06A2968C96AB0
:1026C000884202D90120E86170BD002070BD000081
:1026D00034000020D0010020F8B5274C0027E06A24
:1026E000002808D0FFF706FAE06A401EE062E06AC0
:1026F000002802D03CE072B6FEE7A1681F4E002918
:102700001DD135E0F068C56828461830FFF79EF9FE
:10271000281DFFF79BF9E86A2169884200D92061EA
:102720001421484315498C394018291DFFF7D6F963
:10273000E86A2168C96A884201D30120E0613068F3
:102740000028DFD1A06900280CD00125A06900284D
:1027500008D0FFF7FFFE002800D0E561A069401E09
:10276000A061F3E7E069012802D10127FFF7FEF934
:10277000FFF7CCF93846F8BD34000020D001002026
:102780001FB5FEF79BFE0B48006800280DD0002007
:102790000221019002900346CA010091039006A114
:1027A0000748FFF707FE002801D172B6FEE704B024
:1027B00010BD00006C000020546D72205376630041
:1027C000D5180008FEB5114C1D46034627680020A9
:1027D000089E002F0ED002930192009106290DDA77
:1027E000FFF7A2FE022806D000231A466946206899
:1027F000FFF7E9FCFEBD00233246F7E700232A4637
:1028000069463846FFF76AFDFEBD00006C000020F7
:1028100030280008000000209C000000C6100008BE
:10282000CC2800089C0000209C190000D61000084D
:10283000006CDC0200000000000000000102030444
:102840000607080900000000010203040102030456
:10285000060708090000000000000000000000005A
:102860000000000000000000000000000000000068
:102870000000000000000000000000000000000058
:10288000000000000000000000000000FFFFFFFF4C
:102890000000000000000000000000000000000038
:1028A000000000000000000000000000AAAAAAAA80
:1028B0000000000000000000000000000000000018
:0C28C0000000000000000000000000000C
:04000005080000B53A
:00000001FF
